{
  "contractName": "ReviewController",
  "abi": [
    {
      "constant": true,
      "inputs": [
        {
          "name": "",
          "type": "bytes32"
        }
      ],
      "name": "disputes",
      "outputs": [
        {
          "name": "",
          "type": "address"
        }
      ],
      "payable": false,
      "stateMutability": "view",
      "type": "function"
    },
    {
      "constant": true,
      "inputs": [],
      "name": "arbitrator",
      "outputs": [
        {
          "name": "",
          "type": "address"
        }
      ],
      "payable": false,
      "stateMutability": "view",
      "type": "function"
    },
    {
      "constant": true,
      "inputs": [
        {
          "name": "",
          "type": "bytes32"
        }
      ],
      "name": "reviews",
      "outputs": [
        {
          "name": "timeAdded",
          "type": "uint256"
        },
        {
          "name": "submitter",
          "type": "address"
        }
      ],
      "payable": false,
      "stateMutability": "view",
      "type": "function"
    },
    {
      "inputs": [
        {
          "name": "schelling",
          "type": "address"
        }
      ],
      "payable": false,
      "stateMutability": "nonpayable",
      "type": "constructor"
    },
    {
      "anonymous": false,
      "inputs": [
        {
          "indexed": false,
          "name": "identifier",
          "type": "bytes32"
        },
        {
          "indexed": false,
          "name": "submitter",
          "type": "address"
        }
      ],
      "name": "NewSubmission",
      "type": "event"
    },
    {
      "anonymous": false,
      "inputs": [
        {
          "indexed": false,
          "name": "identifier",
          "type": "bytes32"
        },
        {
          "indexed": false,
          "name": "disputer",
          "type": "address"
        }
      ],
      "name": "NewChallenge",
      "type": "event"
    },
    {
      "anonymous": false,
      "inputs": [
        {
          "indexed": false,
          "name": "identifier",
          "type": "bytes32"
        },
        {
          "indexed": false,
          "name": "submitter",
          "type": "address"
        }
      ],
      "name": "NewWithdrawal",
      "type": "event"
    },
    {
      "anonymous": false,
      "inputs": [
        {
          "indexed": false,
          "name": "identifier",
          "type": "bytes32"
        },
        {
          "indexed": false,
          "name": "valid",
          "type": "bool"
        }
      ],
      "name": "NewResolution",
      "type": "event"
    },
    {
      "constant": false,
      "inputs": [
        {
          "name": "identifier",
          "type": "bytes32"
        }
      ],
      "name": "submit",
      "outputs": [],
      "payable": true,
      "stateMutability": "payable",
      "type": "function"
    },
    {
      "constant": false,
      "inputs": [
        {
          "name": "identifier",
          "type": "bytes32"
        }
      ],
      "name": "challenge",
      "outputs": [],
      "payable": true,
      "stateMutability": "payable",
      "type": "function"
    },
    {
      "constant": false,
      "inputs": [
        {
          "name": "identifier",
          "type": "bytes32"
        }
      ],
      "name": "withdrawAfterTime",
      "outputs": [],
      "payable": false,
      "stateMutability": "nonpayable",
      "type": "function"
    },
    {
      "constant": false,
      "inputs": [
        {
          "name": "identifier",
          "type": "bytes32"
        },
        {
          "name": "valid",
          "type": "bool"
        }
      ],
      "name": "resolveDispute",
      "outputs": [],
      "payable": false,
      "stateMutability": "nonpayable",
      "type": "function"
    }
  ],
  "bytecode": "0x608060405234801561001057600080fd5b506040516020806110f78339810180604052602081101561003057600080fd5b8101908080519060200190929190505050806000806101000a81548173ffffffffffffffffffffffffffffffffffffffff021916908373ffffffffffffffffffffffffffffffffffffffff16021790555050611066806100916000396000f3fe608060405260043610610083576000357c0100000000000000000000000000000000000000000000000000000000900463ffffffff16806311be19971461008857806343a0e3e6146101035780635956ef3a1461014a5780636cc6cde1146101855780638475100d146101dc578063cffd46dc1461025e578063d9caa3d21461028c575b600080fd5b34801561009457600080fd5b506100c1600480360360208110156100ab57600080fd5b81019080803590602001909291905050506102ba565b604051808273ffffffffffffffffffffffffffffffffffffffff1673ffffffffffffffffffffffffffffffffffffffff16815260200191505060405180910390f35b34801561010f57600080fd5b506101486004803603604081101561012657600080fd5b81019080803590602001909291908035151590602001909291905050506102ed565b005b34801561015657600080fd5b506101836004803603602081101561016d57600080fd5b810190808035906020019092919050505061079a565b005b34801561019157600080fd5b5061019a610a62565b604051808273ffffffffffffffffffffffffffffffffffffffff1673ffffffffffffffffffffffffffffffffffffffff16815260200191505060405180910390f35b3480156101e857600080fd5b50610215600480360360208110156101ff57600080fd5b8101908080359060200190929190505050610a87565b604051808381526020018273ffffffffffffffffffffffffffffffffffffffff1673ffffffffffffffffffffffffffffffffffffffff1681526020019250505060405180910390f35b61028a6004803603602081101561027457600080fd5b8101908080359060200190929190505050610acb565b005b6102b8600480360360208110156102a257600080fd5b8101908080359060200190929190505050610dfe565b005b60026020528060005260406000206000915054906101000a900473ffffffffffffffffffffffffffffffffffffffff1681565b6000809054906101000a900473ffffffffffffffffffffffffffffffffffffffff1673ffffffffffffffffffffffffffffffffffffffff163373ffffffffffffffffffffffffffffffffffffffff161415156103b1576040517f08c379a000000000000000000000000000000000000000000000000000000000815260040180806020018281038252600e8152602001807f6e6f742061726269747261746f7200000000000000000000000000000000000081525060200191505060405180910390fd5b600073ffffffffffffffffffffffffffffffffffffffff166002600084815260200190815260200160002060009054906101000a900473ffffffffffffffffffffffffffffffffffffffff1673ffffffffffffffffffffffffffffffffffffffff1614151515610489576040517f08c379a00000000000000000000000000000000000000000000000000000000081526004018080602001828103825260158152602001807f526576696577206e6f7420696e2064697370757465000000000000000000000081525060200191505060405180910390fd5b8015610581573373ffffffffffffffffffffffffffffffffffffffff166108fc600266470de4df8200008115156104bc57fe5b049081150290604051600060405180830381858888f193505050501580156104e8573d6000803e3d6000fd5b506001600083815260200190815260200160002060010160009054906101000a900473ffffffffffffffffffffffffffffffffffffffff1673ffffffffffffffffffffffffffffffffffffffff166108fc6002600366470de4df8200000281151561054f57fe5b049081150290604051600060405180830381858888f1935050505015801561057b573d6000803e3d6000fd5b5061066c565b3373ffffffffffffffffffffffffffffffffffffffff166108fc600266470de4df8200008115156105ae57fe5b049081150290604051600060405180830381858888f193505050501580156105da573d6000803e3d6000fd5b506002600083815260200190815260200160002060009054906101000a900473ffffffffffffffffffffffffffffffffffffffff1673ffffffffffffffffffffffffffffffffffffffff166108fc6002600366470de4df8200000281151561063e57fe5b049081150290604051600060405180830381858888f1935050505015801561066a573d6000803e3d6000fd5b505b60006002600084815260200190815260200160002060006101000a81548173ffffffffffffffffffffffffffffffffffffffff021916908373ffffffffffffffffffffffffffffffffffffffff160217905550604080519081016040528060008152602001600073ffffffffffffffffffffffffffffffffffffffff16815250600160008481526020019081526020016000206000820151816000015560208201518160010160006101000a81548173ffffffffffffffffffffffffffffffffffffffff021916908373ffffffffffffffffffffffffffffffffffffffff1602179055509050507fd9baa0bddb4dd727bb0ffecd494c4a28d126809114eb1916ec8451dcea02c245828260405180838152602001821515151581526020019250505060405180910390a15050565b6107a261100a565b60016000838152602001908152602001600020604080519081016040529081600082015481526020016001820160009054906101000a900473ffffffffffffffffffffffffffffffffffffffff1673ffffffffffffffffffffffffffffffffffffffff1673ffffffffffffffffffffffffffffffffffffffff16815250509050600073ffffffffffffffffffffffffffffffffffffffff166002600084815260200190815260200160002060009054906101000a900473ffffffffffffffffffffffffffffffffffffffff1673ffffffffffffffffffffffffffffffffffffffff1614151561089057600080fd5b6203f4808160000151014210151515610911576040517f08c379a00000000000000000000000000000000000000000000000000000000081526004018080602001828103825260098152602001807f546f6f206561726c79000000000000000000000000000000000000000000000081525060200191505060405180910390fd5b604080519081016040528060008152602001600073ffffffffffffffffffffffffffffffffffffffff16815250600160008481526020019081526020016000206000820151816000015560208201518160010160006101000a81548173ffffffffffffffffffffffffffffffffffffffff021916908373ffffffffffffffffffffffffffffffffffffffff1602179055509050503373ffffffffffffffffffffffffffffffffffffffff166108fc66470de4df8200009081150290604051600060405180830381858888f193505050501580156109f2573d6000803e3d6000fd5b507f91e40cb74d845acdbf09700602f0712735a40a0964e53a93291832fd49aec7538233604051808381526020018273ffffffffffffffffffffffffffffffffffffffff1673ffffffffffffffffffffffffffffffffffffffff1681526020019250505060405180910390a15050565b6000809054906101000a900473ffffffffffffffffffffffffffffffffffffffff1681565b60016020528060005260406000206000915090508060000154908060010160009054906101000a900473ffffffffffffffffffffffffffffffffffffffff16905082565b610ad361100a565b60016000838152602001908152602001600020604080519081016040529081600082015481526020016001820160009054906101000a900473ffffffffffffffffffffffffffffffffffffffff1673ffffffffffffffffffffffffffffffffffffffff1673ffffffffffffffffffffffffffffffffffffffff168152505090506000816000015114151515610b6757600080fd5b6203f48081600001510142101515610be7576040517f08c379a00000000000000000000000000000000000000000000000000000000081526004018080602001828103825260088152602001807f546f6f206c61746500000000000000000000000000000000000000000000000081525060200191505060405180910390fd5b600073ffffffffffffffffffffffffffffffffffffffff166002600084815260200190815260200160002060009054906101000a900473ffffffffffffffffffffffffffffffffffffffff1673ffffffffffffffffffffffffffffffffffffffff1614151515610cbf576040517f08c379a00000000000000000000000000000000000000000000000000000000081526004018080602001828103825260128152602001807f416c726561647920696e2064697370757465000000000000000000000000000081525060200191505060405180910390fd5b66470de4df82000034141515610d3d576040517f08c379a00000000000000000000000000000000000000000000000000000000081526004018080602001828103825260168152602001807f616d6f756e74206e6f74207472616e736665727265640000000000000000000081525060200191505060405180910390fd5b336002600084815260200190815260200160002060006101000a81548173ffffffffffffffffffffffffffffffffffffffff021916908373ffffffffffffffffffffffffffffffffffffffff1602179055507f08ab31f466ca1d656c6b668c79a927fe70d22daea90943980ba5b7841ad7720b8233604051808381526020018273ffffffffffffffffffffffffffffffffffffffff1673ffffffffffffffffffffffffffffffffffffffff1681526020019250505060405180910390a15050565b60006001600083815260200190815260200160002060000154141515610e8c576040517f08c379a000000000000000000000000000000000000000000000000000000000815260040180806020018281038252600d8152602001807f616c72656164792061646465640000000000000000000000000000000000000081525060200191505060405180910390fd5b66470de4df82000034141515610f0a576040517f08c379a00000000000000000000000000000000000000000000000000000000081526004018080602001828103825260188152602001807f302e303220455448206e6f74207472616e73666572726564000000000000000081525060200191505060405180910390fd5b60408051908101604052804281526020013373ffffffffffffffffffffffffffffffffffffffff16815250600160008381526020019081526020016000206000820151816000015560208201518160010160006101000a81548173ffffffffffffffffffffffffffffffffffffffff021916908373ffffffffffffffffffffffffffffffffffffffff1602179055509050507f08ba783fdfcf4bd87850be3fca1258b502f45e626361c886b125a97c36ac76028133604051808381526020018273ffffffffffffffffffffffffffffffffffffffff1673ffffffffffffffffffffffffffffffffffffffff1681526020019250505060405180910390a150565b604080519081016040528060008152602001600073ffffffffffffffffffffffffffffffffffffffff168152509056fea165627a7a72305820f4d95779897e6abed930119e6b0a39ae2bc071ea21f4e5c2b14d29783fb59f5b0029",
  "source": "pragma solidity ^0.5.0;\n\ncontract ReviewController {\n\n    // Deposit amount is 0.02 ETH (2.7 usd) = 2 * 10^16\n    // Should be below uint(-1)/3 for overflow not to happen\n    uint constant amount = 20000000000000000;\n\n    // Challenge period is 3 days\n    // After, submitter can withdraw deposit\n    uint constant period = 3 days;\n\n    address public arbitrator;\n\n    // mapping (identifier => Review)\n    mapping (bytes32 => Review) public reviews;\n    // mapping (identifier => disputer)\n    mapping (bytes32 => address payable) public disputes;\n\n    struct Review {\n        uint timeAdded;\n        address payable submitter;\n    }\n\n    event NewSubmission(bytes32 identifier, address submitter);\n    event NewChallenge(bytes32 identifier, address disputer);\n    event NewWithdrawal(bytes32 identifier, address submitter);\n    event NewResolution(bytes32 identifier, bool valid);\n\n    constructor (address schelling) public {\n        // Assign arbitrator\n        arbitrator = schelling;\n    }\n\n    function submit(bytes32 identifier) public payable\n    {\n        // Review must not have been submitted\n        require(reviews[identifier].timeAdded == 0, \"already added\");\n\n        // Transfer amount\n        require(msg.value == amount, \"0.02 ETH not transferred\");\n\n        // Add review\n        reviews[identifier] = Review(now, msg.sender);\n\n        emit NewSubmission(identifier, msg.sender);\n    }\n\n    function challenge(bytes32 identifier) public payable\n    {\n        // Get review\n        Review memory review = reviews[identifier];\n\n        // Review must have been added\n        require(review.timeAdded != 0);\n\n        // Review can be challenged only within period\n        require(now < review.timeAdded + period, \"Too late\");\n\n        // Review musn't already be in dispute\n        require(disputes[identifier] != address(0), \"Already in dispute\");\n\n        // Challenger needs to put up amount\n        require(msg.value == amount, \"amount not transferred\");\n\n        // Create dispute\n        disputes[identifier] = msg.sender;\n\n        emit NewChallenge(identifier, msg.sender);\n    }\n\n    function withdrawAfterTime(bytes32 identifier) public\n    {\n        // Get review\n        Review memory review = reviews[identifier];\n\n        // Review must not be in dispute\n        require(disputes[identifier] == address(0));\n\n        // Deposit can only be withdrawn after period\n        // Also takes care of not added reviews\n        require(now >= review.timeAdded + period, \"Too early\");\n\n        // Null reviews to save gas\n        reviews[identifier] = Review(0, address(0));\n\n        // Give deposit back\n        msg.sender.transfer(amount);\n\n        emit NewWithdrawal(identifier, msg.sender);\n    }\n\n    function resolveDispute(bytes32 identifier, bool valid) public\n    {\n        // Can only be called by arbitrator\n        require(msg.sender == arbitrator, \"not arbitrator\");\n\n        // Review has to be in dispute\n        require(disputes[identifier] != address(0), \"Review not in dispute\");\n\n        if (valid) {\n            // Pay arbitrator 1/2 of deposit\n            msg.sender.transfer(amount / 2);\n\n            // Pay submitter 3/2 of deposit\n            reviews[identifier].submitter.transfer(amount * 3 / 2);\n        } else {\n            // Pay arbitrator 1/2 of deposit\n            msg.sender.transfer(amount / 2);\n            \n            // Pay challenger 3/2 of deposit\n            disputes[identifier].transfer(amount * 3 / 2);\n        }\n\n        // Null dispute\n        disputes[identifier] = address(0);\n\n        // Null review\n        reviews[identifier] = Review(0, address(0));\n\n        emit NewResolution(identifier, valid);\n    }\n}\n",
  "sourcePath": "/Users/dteiml/bc/ethparis2019/client/solvio-frontend/contracts/ReviewController.sol",
  "compiler": {
    "name": "solc",
    "version": "0.5.0+commit.1d4f565a.Emscripten.clang"
  },
  "schemaVersion": "3.0.2",
  "updatedAt": "2019-03-10T00:29:27.531Z",
  "devdoc": {
    "methods": {}
  },
  "userdoc": {
    "methods": {}
  }
}